{
  "contractName": "ProofOfExistence2",
  "abi": [
    {
      "inputs": [],
      "stateMutability": "nonpayable",
      "type": "constructor"
    },
    {
      "inputs": [
        {
          "internalType": "uint256",
          "name": "",
          "type": "uint256"
        }
      ],
      "name": "proofs",
      "outputs": [
        {
          "internalType": "bytes32",
          "name": "",
          "type": "bytes32"
        }
      ],
      "stateMutability": "view",
      "type": "function",
      "constant": true
    },
    {
      "inputs": [
        {
          "internalType": "bytes32",
          "name": "proof",
          "type": "bytes32"
        }
      ],
      "name": "storeProof",
      "outputs": [],
      "stateMutability": "nonpayable",
      "type": "function"
    },
    {
      "inputs": [
        {
          "internalType": "string",
          "name": "document",
          "type": "string"
        }
      ],
      "name": "notarize",
      "outputs": [],
      "stateMutability": "nonpayable",
      "type": "function"
    },
    {
      "inputs": [
        {
          "internalType": "string",
          "name": "document",
          "type": "string"
        }
      ],
      "name": "proofFor",
      "outputs": [
        {
          "internalType": "bytes32",
          "name": "",
          "type": "bytes32"
        }
      ],
      "stateMutability": "pure",
      "type": "function",
      "constant": true
    },
    {
      "inputs": [
        {
          "internalType": "string",
          "name": "document",
          "type": "string"
        }
      ],
      "name": "checkDocument",
      "outputs": [
        {
          "internalType": "bool",
          "name": "",
          "type": "bool"
        }
      ],
      "stateMutability": "view",
      "type": "function",
      "constant": true
    }
  ],
  "bytecode": "0x608060405234801561001057600080fd5b50610778806100206000396000f3fe608060405234801561001057600080fd5b50600436106100575760003560e01c806353fb92331461005c5780637183616c1461008c5780638952877b146100a85780639ddaf5aa146100c4578063f6c1acdf146100f4575b600080fd5b610076600480360381019061007191906103e2565b610124565b6040516100839190610446565b60405180910390f35b6100a660048036038101906100a191906103e2565b610143565b005b6100c260048036038101906100bd9190610497565b61015d565b005b6100de60048036038101906100d991906104fa565b610189565b6040516100eb9190610536565b60405180910390f35b61010e600480360381019061010991906103e2565b6101ad565b60405161011b9190610536565b60405180910390f35b600080610130836101ad565b905061013b81610225565b915050919050565b600061014e826101ad565b90506101598161015d565b5050565b600081908060018154018082558091505060019003906000526020600020016000909190919091505550565b6000818154811061019957600080fd5b906000526020600020016000915090505481565b60006002826040516020016101c291906105d9565b6040516020818303038152906040526040516101de9190610642565b602060405180830381855afa1580156101fb573d6000803e3d6000fd5b5050506040513d601f19601f8201168201806040525081019061021e919061066e565b9050919050565b600080600090505b60008054905081101561027d57826000828154811061024f5761024e61069b565b5b9060005260206000200154141561026a576001915050610283565b8080610275906106f9565b91505061022d565b50600090505b919050565b6000604051905090565b600080fd5b600080fd5b600080fd5b600080fd5b6000601f19601f8301169050919050565b7f4e487b7100000000000000000000000000000000000000000000000000000000600052604160045260246000fd5b6102ef826102a6565b810181811067ffffffffffffffff8211171561030e5761030d6102b7565b5b80604052505050565b6000610321610288565b905061032d82826102e6565b919050565b600067ffffffffffffffff82111561034d5761034c6102b7565b5b610356826102a6565b9050602081019050919050565b82818337600083830152505050565b600061038561038084610332565b610317565b9050828152602081018484840111156103a1576103a06102a1565b5b6103ac848285610363565b509392505050565b600082601f8301126103c9576103c861029c565b5b81356103d9848260208601610372565b91505092915050565b6000602082840312156103f8576103f7610292565b5b600082013567ffffffffffffffff81111561041657610415610297565b5b610422848285016103b4565b91505092915050565b60008115159050919050565b6104408161042b565b82525050565b600060208201905061045b6000830184610437565b92915050565b6000819050919050565b61047481610461565b811461047f57600080fd5b50565b6000813590506104918161046b565b92915050565b6000602082840312156104ad576104ac610292565b5b60006104bb84828501610482565b91505092915050565b6000819050919050565b6104d7816104c4565b81146104e257600080fd5b50565b6000813590506104f4816104ce565b92915050565b6000602082840312156105105761050f610292565b5b600061051e848285016104e5565b91505092915050565b61053081610461565b82525050565b600060208201905061054b6000830184610527565b92915050565b600081519050919050565b600082825260208201905092915050565b60005b8381101561058b578082015181840152602081019050610570565b8381111561059a576000848401525b50505050565b60006105ab82610551565b6105b5818561055c565b93506105c581856020860161056d565b6105ce816102a6565b840191505092915050565b600060208201905081810360008301526105f381846105a0565b905092915050565b600081519050919050565b600081905092915050565b600061061c826105fb565b6106268185610606565b935061063681856020860161056d565b80840191505092915050565b600061064e8284610611565b915081905092915050565b6000815190506106688161046b565b92915050565b60006020828403121561068457610683610292565b5b600061069284828501610659565b91505092915050565b7f4e487b7100000000000000000000000000000000000000000000000000000000600052603260045260246000fd5b7f4e487b7100000000000000000000000000000000000000000000000000000000600052601160045260246000fd5b6000610704826104c4565b91507fffffffffffffffffffffffffffffffffffffffffffffffffffffffffffffffff821415610737576107366106ca565b5b60018201905091905056fea26469706673582212208d3a656cbc4260d3c4a0263988bb9c5cc73870b0763f8705c34d0c7d03ba054364736f6c63430008090033",
  "immutableReferences": {},
  "source": "// SPDX-License-Identifier: MIT\npragma solidity >=0.4.22 <0.9.0;\n\ncontract ProofOfExistence2 {\n  constructor()  {\n  }\n\n  // state\n  bytes32[] public proofs;\n\n  // store a proof of existence in the contract state\n  // *transactional function*\n  function storeProof(bytes32 proof) public {\n    proofs.push(proof);\n  }\n\n  // calculate and store the proof for a document\n  // *transactional function*\n  function notarize(string memory document) external {\n    bytes32 proof = proofFor(document);\n    storeProof(proof);\n  }\n  // helper function to get a document's sha256\n  // *read-only function*\n  function proofFor(string memory document) public pure returns (bytes32) {\n    return sha256(abi.encode(document));\n  }\n\n  // check if a document has been notarized\n  // *read-only function*\n  function checkDocument(string memory document) public view returns (bool) {\n    bytes32 proof = proofFor(document);\n    return hasProof(proof);\n  }\n  // returns true if proof is stored\n  // *read-only function*\n  function hasProof(bytes32 proof) internal view returns (bool) {\n    for (uint256 i = 0; i < proofs.length; i++) {\n      if (proofs[i] == proof) {\n        return true;\n      }\n    }\n    return false;\n  }\n\n}\n",
  "sourcePath": "/home/fabricio/git/proof-of-existence-contract/contracts/ProofOfExistence2.sol",
  "compiler": {
    "name": "solc",
    "version": "0.8.9+commit.e5eed63a.Emscripten.clang"
  },
  "schemaVersion": "3.4.3",
  "updatedAt": "2021-10-09T19:18:50.209Z",
  "networkType": "ethereum",
  "devdoc": {
    "kind": "dev",
    "methods": {},
    "version": 1
  },
  "userdoc": {
    "kind": "user",
    "methods": {},
    "version": 1
  }
}