{
  "contractName": "ProofOfExistence3",
  "abi": [
    {
      "inputs": [
        {
          "internalType": "bytes32",
          "name": "proof",
          "type": "bytes32"
        }
      ],
      "name": "storeProof",
      "outputs": [],
      "stateMutability": "nonpayable",
      "type": "function"
    },
    {
      "inputs": [
        {
          "internalType": "string",
          "name": "document",
          "type": "string"
        }
      ],
      "name": "notarize",
      "outputs": [],
      "stateMutability": "nonpayable",
      "type": "function"
    },
    {
      "inputs": [
        {
          "internalType": "string",
          "name": "document",
          "type": "string"
        }
      ],
      "name": "proofFor",
      "outputs": [
        {
          "internalType": "bytes32",
          "name": "",
          "type": "bytes32"
        }
      ],
      "stateMutability": "pure",
      "type": "function"
    },
    {
      "inputs": [
        {
          "internalType": "string",
          "name": "document",
          "type": "string"
        }
      ],
      "name": "checkDocument",
      "outputs": [
        {
          "internalType": "bool",
          "name": "",
          "type": "bool"
        }
      ],
      "stateMutability": "view",
      "type": "function"
    },
    {
      "inputs": [
        {
          "internalType": "bytes32",
          "name": "proof",
          "type": "bytes32"
        }
      ],
      "name": "hasProof",
      "outputs": [
        {
          "internalType": "bool",
          "name": "",
          "type": "bool"
        }
      ],
      "stateMutability": "view",
      "type": "function"
    }
  ],
  "bytecode": "0x608060405234801561001057600080fd5b506105f9806100206000396000f3fe608060405234801561001057600080fd5b50600436106100575760003560e01c806353fb92331461005c5780637183616c1461008c5780638952877b146100a8578063e3d1e6d6146100c4578063f6c1acdf146100f4575b600080fd5b61007660048036038101906100719190610386565b610124565b60405161008391906103ea565b60405180910390f35b6100a660048036038101906100a19190610386565b610143565b005b6100c260048036038101906100bd919061043b565b61015d565b005b6100de60048036038101906100d9919061043b565b61018b565b6040516100eb91906103ea565b60405180910390f35b61010e60048036038101906101099190610386565b6101b4565b60405161011b9190610477565b60405180910390f35b600080610130836101b4565b905061013b8161018b565b915050919050565b600061014e826101b4565b90506101598161015d565b5050565b600160008083815260200190815260200160002060006101000a81548160ff02191690831515021790555050565b600080600083815260200190815260200160002060009054906101000a900460ff169050919050565b60006002826040516020016101c9919061050c565b6040516020818303038152906040526040516101e5919061056a565b602060405180830381855afa158015610202573d6000803e3d6000fd5b5050506040513d601f19601f820116820180604052508101906102259190610596565b9050919050565b6000604051905090565b600080fd5b600080fd5b600080fd5b600080fd5b6000601f19601f8301169050919050565b7f4e487b7100000000000000000000000000000000000000000000000000000000600052604160045260246000fd5b6102938261024a565b810181811067ffffffffffffffff821117156102b2576102b161025b565b5b80604052505050565b60006102c561022c565b90506102d1828261028a565b919050565b600067ffffffffffffffff8211156102f1576102f061025b565b5b6102fa8261024a565b9050602081019050919050565b82818337600083830152505050565b6000610329610324846102d6565b6102bb565b90508281526020810184848401111561034557610344610245565b5b610350848285610307565b509392505050565b600082601f83011261036d5761036c610240565b5b813561037d848260208601610316565b91505092915050565b60006020828403121561039c5761039b610236565b5b600082013567ffffffffffffffff8111156103ba576103b961023b565b5b6103c684828501610358565b91505092915050565b60008115159050919050565b6103e4816103cf565b82525050565b60006020820190506103ff60008301846103db565b92915050565b6000819050919050565b61041881610405565b811461042357600080fd5b50565b6000813590506104358161040f565b92915050565b60006020828403121561045157610450610236565b5b600061045f84828501610426565b91505092915050565b61047181610405565b82525050565b600060208201905061048c6000830184610468565b92915050565b600081519050919050565b600081905092915050565b60005b838110156104c65780820151818401526020810190506104ab565b838111156104d5576000848401525b50505050565b60006104e682610492565b6104f0818561049d565b93506105008185602086016104a8565b80840191505092915050565b600061051882846104db565b915081905092915050565b600081519050919050565b600081905092915050565b600061054482610523565b61054e818561052e565b935061055e8185602086016104a8565b80840191505092915050565b60006105768284610539565b915081905092915050565b6000815190506105908161040f565b92915050565b6000602082840312156105ac576105ab610236565b5b60006105ba84828501610581565b9150509291505056fea2646970667358221220a10fb6edfde8e0c57a33adaa1d7125ab749af636a44545d09d6c2da269c04d8764736f6c63430008090033",
  "immutableReferences": {},
  "source": "// SPDX-License-Identifier: MIT\npragma solidity >=0.4.22 <0.9.0;\n\n// Proof of Existence contract, version 3\ncontract ProofOfExistence3 {\n  mapping (bytes32 => bool) private proofs;\n  // store a proof of existence in the contract state\n  function storeProof(bytes32 proof) public {\n    proofs[proof] = true;\n  }\n  // calculate and store the proof for a document\n  function notarize(string memory document) public {\n    bytes32 proof = proofFor(document);\n    storeProof(proof);\n  }\n  // helper function to get a document's sha256\n  function proofFor(string memory document) public pure returns (bytes32) {\n    return sha256(abi.encodePacked(document));\n  }\n  // check if a document has been notarized\n  function checkDocument(string memory document) public view returns (bool) {\n    bytes32 proof = proofFor(document);\n    return hasProof(proof);\n  }\n  // returns true if proof is stored\n  function hasProof(bytes32 proof) public view returns(bool) {\n    return proofs[proof];\n  }\n}",
  "sourcePath": "/home/fabricio/git/proof-of-existence-contract/contracts/ProofOfExistence3.sol",
  "compiler": {
    "name": "solc",
    "version": "0.8.9+commit.e5eed63a.Emscripten.clang"
  },
  "schemaVersion": "3.4.3",
  "updatedAt": "2021-10-07T00:09:36.803Z",
  "devdoc": {
    "kind": "dev",
    "methods": {},
    "version": 1
  },
  "userdoc": {
    "kind": "user",
    "methods": {},
    "version": 1
  }
}