{
  "contractName": "ProofOfExistence2",
  "abi": [
    {
      "inputs": [],
      "stateMutability": "nonpayable",
      "type": "constructor"
    },
    {
      "inputs": [
        {
          "internalType": "uint256",
          "name": "",
          "type": "uint256"
        }
      ],
      "name": "proofs",
      "outputs": [
        {
          "internalType": "bytes32",
          "name": "",
          "type": "bytes32"
        }
      ],
      "stateMutability": "view",
      "type": "function"
    },
    {
      "inputs": [
        {
          "internalType": "string",
          "name": "document",
          "type": "string"
        }
      ],
      "name": "notarize",
      "outputs": [],
      "stateMutability": "nonpayable",
      "type": "function"
    },
    {
      "inputs": [
        {
          "internalType": "string",
          "name": "document",
          "type": "string"
        }
      ],
      "name": "checkDocument",
      "outputs": [
        {
          "internalType": "bool",
          "name": "",
          "type": "bool"
        }
      ],
      "stateMutability": "view",
      "type": "function"
    }
  ],
  "bytecode": "0x608060405234801561001057600080fd5b506106d4806100206000396000f3fe608060405234801561001057600080fd5b50600436106100415760003560e01c806353fb9233146100465780637183616c146100765780639ddaf5aa14610092575b600080fd5b610060600480360381019061005b9190610380565b6100c2565b60405161006d91906103e4565b60405180910390f35b610090600480360381019061008b9190610380565b6100e1565b005b6100ac60048036038101906100a79190610435565b6100fb565b6040516100b9919061047b565b60405180910390f35b6000806100ce8361011f565b90506100d981610197565b915050919050565b60006100ec8261011f565b90506100f7816101fa565b5050565b6000818154811061010b57600080fd5b906000526020600020016000915090505481565b6000600282604051602001610134919061051e565b6040516020818303038152906040526040516101509190610587565b602060405180830381855afa15801561016d573d6000803e3d6000fd5b5050506040513d601f19601f8201168201806040525081019061019091906105ca565b9050919050565b600080600090505b6000805490508110156101ef5782600082815481106101c1576101c06105f7565b5b906000526020600020015414156101dc5760019150506101f5565b80806101e790610655565b91505061019f565b50600090505b919050565b600081908060018154018082558091505060019003906000526020600020016000909190919091505550565b6000604051905090565b600080fd5b600080fd5b600080fd5b600080fd5b6000601f19601f8301169050919050565b7f4e487b7100000000000000000000000000000000000000000000000000000000600052604160045260246000fd5b61028d82610244565b810181811067ffffffffffffffff821117156102ac576102ab610255565b5b80604052505050565b60006102bf610226565b90506102cb8282610284565b919050565b600067ffffffffffffffff8211156102eb576102ea610255565b5b6102f482610244565b9050602081019050919050565b82818337600083830152505050565b600061032361031e846102d0565b6102b5565b90508281526020810184848401111561033f5761033e61023f565b5b61034a848285610301565b509392505050565b600082601f8301126103675761036661023a565b5b8135610377848260208601610310565b91505092915050565b60006020828403121561039657610395610230565b5b600082013567ffffffffffffffff8111156103b4576103b3610235565b5b6103c084828501610352565b91505092915050565b60008115159050919050565b6103de816103c9565b82525050565b60006020820190506103f960008301846103d5565b92915050565b6000819050919050565b610412816103ff565b811461041d57600080fd5b50565b60008135905061042f81610409565b92915050565b60006020828403121561044b5761044a610230565b5b600061045984828501610420565b91505092915050565b6000819050919050565b61047581610462565b82525050565b6000602082019050610490600083018461046c565b92915050565b600081519050919050565b600082825260208201905092915050565b60005b838110156104d05780820151818401526020810190506104b5565b838111156104df576000848401525b50505050565b60006104f082610496565b6104fa81856104a1565b935061050a8185602086016104b2565b61051381610244565b840191505092915050565b6000602082019050818103600083015261053881846104e5565b905092915050565b600081519050919050565b600081905092915050565b600061056182610540565b61056b818561054b565b935061057b8185602086016104b2565b80840191505092915050565b60006105938284610556565b915081905092915050565b6105a781610462565b81146105b257600080fd5b50565b6000815190506105c48161059e565b92915050565b6000602082840312156105e0576105df610230565b5b60006105ee848285016105b5565b91505092915050565b7f4e487b7100000000000000000000000000000000000000000000000000000000600052603260045260246000fd5b7f4e487b7100000000000000000000000000000000000000000000000000000000600052601160045260246000fd5b6000610660826103ff565b91507fffffffffffffffffffffffffffffffffffffffffffffffffffffffffffffffff82141561069357610692610626565b5b60018201905091905056fea2646970667358221220d8b143f5d3c6a43b4598b9fabfe279d5bc2a5fa01a61c55e49a7004eb93a6a2c64736f6c63430008090033",
  "immutableReferences": {},
  "source": "// SPDX-License-Identifier: MIT\npragma solidity >=0.4.22 <0.9.0;\n\ncontract ProofOfExistence2 {\n  constructor()  {\n  }\n\n  // state\n  bytes32[] public proofs;\n\n  // store a proof of existence in the contract state\n  // *transactional function*\n  function storeProof(bytes32 proof) internal {\n    proofs.push(proof);\n  }\n\n  // calculate and store the proof for a document\n  // *transactional function*\n  function notarize(string memory document) public {\n    bytes32 proof = proofFor(document);\n    storeProof(proof);\n  }\n  // helper function to get a document's sha256\n  // *read-only function*\n  function proofFor(string memory document) internal pure returns (bytes32) {\n    return sha256(abi.encode(document));\n  }\n\n  // check if a document has been notarized\n  // *read-only function*\n  function checkDocument(string memory document) public view returns (bool) {\n    bytes32 proof = proofFor(document);\n    return hasProof(proof);\n  }\n  // returns true if proof is stored\n  // *read-only function*\n  function hasProof(bytes32 proof) internal view returns (bool) {\n    for (uint256 i = 0; i < proofs.length; i++) {\n      if (proofs[i] == proof) {\n        return true;\n      }\n    }\n    return false;\n  }\n\n}\n",
  "sourcePath": "/home/fabricio/git/proof-of-existence-contract/contracts/ProofOfExistence2.sol",
  "compiler": {
    "name": "solc",
    "version": "0.8.9+commit.e5eed63a.Emscripten.clang"
  },
  "schemaVersion": "3.4.3",
  "updatedAt": "2021-10-06T14:48:07.678Z",
  "devdoc": {
    "kind": "dev",
    "methods": {},
    "version": 1
  },
  "userdoc": {
    "kind": "user",
    "methods": {},
    "version": 1
  }
}